:020000040800F2
:1000000058050020C50000087D1600087B16000872
:1000100000000000000000000000000000000000E0
:100020000000000000000000000000008116000831
:1000300000000000000000007F1600088316000882
:10004000D700000800000000D7000008D700000813
:10005000D7000008D7000008D7000008D700000824
:1000600000000000D7000008D70000083101000898
:10007000D7000008D7000008D700000800000000E3
:10008000D70000080000000000000000D7000008B2
:1000900000000000D7000008D7000008D7000008C3
:1000A00000000000D700000800000000AD190008A3
:1000B0000348854600F02AF800480047B91B0008AD
:1000C000580500200448804704480047FEE7FEE743
:1000D000FEE7FEE7FEE7FEE78B160008B10000082A
:1000E00030B50B46014600202022012409E00D46D0
:1000F000D5409D4205D31D469540491B2546954058
:1001000040191546521E002DF1DC30BD064C01256C
:10011000064E05E0E36807CC2B430C3C98471034AF
:10012000B442F7D3FFF7C8FF4C1F00086C1F00084C
:1001300080B5024800F092F980BDC0465000002012
:1001400070470000F0B583B00246002302933420CC
:10015000105C012802D1022003B0F0BD01931646C5
:100160003436012030701768BB685B0716D40096E0
:100170000D684B6801242046A840314EB34215D18A
:10018000B96A8143B9622846A0431028019F3846C6
:10019000009E08D1102D1BD02E481AE0916B202311
:1001A0000B439363019F377003B0F0BDBB6A0343F9
:1001B000BB62D06A421E072A31D22846A0431028CB
:1001C000019F3846009EEED1102D0AD0A00509E00F
:1001D0001F481C490A6802400A603846377003B05D
:1001E000F0BDE00517490A6802430A60102D384641
:1001F000D9D1154800681549FFF772FF0A2141431C
:100200000291029800283846CDD00298401E0290F4
:1002100002980028F9D13846377003B0F0BD2207A4
:100220009042CAD088687A6907210A409042C4D0B7
:100230007A698A437A610840796901437961BCE748
:1002400001100000082701400800002040420F0074
:10025000FFFF7FFFFFFFBFFFF0B581B0002855D043
:10026000044605463835806B002852D02868C00601
:1002700059D420688168490755D4812149002A68EA
:100280008A43911C2960826803210A40012A05D112
:100290000268D2070ED1C26812040BD4C2681823B8
:1002A0009A43A3681343C360890702698A4361685C
:1002B00011430161C1683D4A0A40C260A16A491EFA
:1002C0004A1E91410903227E9203637EDB0313439E
:1002D000A27E56031E43E368276933430B43B91ECE
:1002E0004E424E41B6001E432421615C4900314319
:1002F000E37E012B21D1002A1CD0A26B20231343C3
:10030000A363E26B01231343E36316E0012001B012
:10031000F0BD342000212154E163204600F04AF86A
:100320002868C006A5D5286810210143012029604E
:1003300001B0F0BD012212041143E269FF23C23370
:100340009A4202D00A43216A1143C2680A43C2603A
:10035000E26A531E072B24D243690726B343436145
:100360003240436913434361C068114A02408A42E4
:1003700009D10020E063A26B0121114302229143C5
:10038000296001B0F0BDA06B102101430220814320
:10039000A163E16B012001433C342546296001B093
:1003A000F0BD01231B079A42D6D0DDE71902FEFFFC
:1003B000E7FF3F8310B586B00021059104910391BA
:1003C000029101910068114A904201D006B010BD1F
:1003D000012042020E4B5C6814435C605C68144070
:1003E0000094009A80041A6802431A601A68024056
:1003F0000092009803910320029002200190C548CA
:1004000001A900F0C1F806B010BDC04600240140AB
:1004100014100240B0B52121415C022919D10146D6
:100420002131026813680E24A3431360136801246A
:10043000A3431360C26B036C25469D4055600C704E
:10044000202100244454416B002900D088472046D5
:10045000B0BD0421816301242046B0BDF0B581B058
:10046000C16B036C00910C68026815686E0714D5A7
:1004700004210F469F403E462640002E0DD01368B3
:100480009B0602D413688B43136000994F60C16AC6
:10049000002939D0884701B0F0BDA9071AD5022636
:1004A0009E4031462140002914D01168890606D4A7
:1004B00011680A23994311602121012242540099B5
:1004C0004E60202100224254816A00291CD08847B6
:1004D00001B0F0BD290717D5082199402140002916
:1004E00012D011680E24A143116001210A469A40DE
:1004F000009B5A602022002383548163212281546F
:10050000016B002900D0884701B0F0BDF0B585B07F
:1005100000282FD004462121049102206054C2CC2F
:1005200022686568A0680190E068029020690390E5
:100530000868124B034033433B4313432B4301985A
:10054000034302980343039803430B6020200025D4
:100550000C3C2554A5630120049AA0540848E0638C
:10056000084808181421FFF7BBFD800020642846C6
:1005700005B0F0BD0125284605B0F0BD0FC0FFFF56
:1005800000000240F8FFFDBFF0B58AB00A68002AFB
:1005900000D1B5E004465B48844201D0052000E06C
:1005A00003200090012000231F460290054604917D
:1005B00008930695681E029E079086403240002AE6
:1005C00000D192E0059703924A6810201043122848
:1005D00010D10D461C20059908400F218140079A33
:1005E000D3089B00E3181F6A8F4329698140394370
:1005F00019626A6803210846089DA840236883435E
:10060000174601910F40AF401F432760C043122A95
:1006100013D8012393403D490B420ED0A3680340F9
:100620000499CF68AF401F43A760D306DB0F07993B
:100630008B406768B7431F436760E36803400499D2
:100640008868A8401843E060D000039D059F4CD502
:100650005E480246006801210843106010680840A7
:1006600009900C263E400F23B340079F0198874313
:1006700009982748024638589843BF180923DB06D3
:100680009C4208D0234A944206D023498C420099C8
:1006900002D1022100E00021B140014339601A4E2D
:1006A000326804994868C30301D52A4300E0AA438D
:1006B000059F3260726883030BD52A437260B2686B
:1006C000C3020BD4AA43B260F26880020BD4AA43DF
:1006D0000AE0AA437260B268C302F3D52A43B2604B
:1006E000F2688002F3D52A43F2600A681046069D3C
:1006F000E840089B9B1C3F1D6D1C002800D057E75D
:100700000AB0F0BD000C00480004014006000600DD
:10071000080001400004004800080048002A02D0F8
:100720001822815070472822815070470548006880
:100730007047C0461A48007802490A6810180860D5
:100740007047C0465401002010B5EF4801681022E0
:100750000A4302600024204600F004F800F022F86A
:10076000204610BD70B504467D20C0000C4E317887
:10077000FFF7B6FC0146EC480068FFF7B1FC00F05B
:1007800003FC0125032C08D8002806D10025E843E6
:1007900021462A4600F072F87460284670BDC046B3
:1007A0000000002082B00948016801221143016065
:1007B0000168114001910199110742680A434260A2
:1007C000406808400090009802B07047181002403E
:1007D000F0B581B000283FD015460E460446406F64
:1007E000002805D1702000212154204600F0E8FEA9
:1007F00024206067206801680127B9430160204612
:1008000001F04CF8012824D0606A002802D020466C
:1008100000F03CFF2068426811490A40426082684B
:1008200008239A4382600122D3029D4206D1FF230E
:100830001B0647689F433306FB18436003680B4061
:100840002B430360016811430160204600F088FFDC
:100850000746384601B0F0BD0127384601B0F0BD6B
:10086000FFF7FFFF002805DB1F2108400121814021
:10087000014801607047C04600E100E0002805DB48
:100880000322034693430C4A9A1806E00F220240C3
:10089000083A03239A43074BD2188007C00E8901F8
:1008A000C9B28140FF238340106898430843106019
:1008B0007047C0461CED00E000E400E0F0B585B0F4
:1008C00004468078C0073E4B65D0012529071A1FD2
:1008D0001068C00001910092029506D50020039097
:1008E000384F3868C00520D40BE01068084310600A
:1008F00010680840049004980395324F3868C0058A
:1009000013D402980602386830433860FFF70EFFB0
:1009100005463868304208D1FFF708FF401B6428BD
:10092000F7D90325284605B0F0BD03252802244B3E
:1009300019680140002920D06268024091421CD011
:100940000298000419681A6802431A601A68824300
:100950001A6008461C4A10401860C8070DD0FFF7FF
:10096000E5FE0646694F164B1868800705D4FFF769
:10097000DDFE801BB842F6D91FE018681249084016
:100980006168014319600398002804D0009A106838
:100990000199884310602068C10705D019690322B6
:1009A0009143A2680A431A610025800605D518699B
:1009B00010218843E16801431961284605B0F0BD64
:1009C0002010024000700040FFFCFFFFF0B581B036
:1009D000002832D004464C4B1A68012002408A425B
:1009E00009D21A680126B2430A431A601A683240D3
:1009F0008A4200D085E0009121688A075B4B11D5BF
:100A00004A0707D507221202584B1B681343574A5F
:100A10001360564B1A68F0239A43A3681343534A52
:100A20001360524BC9072DD061681A1F012908D1E4
:100A300012689203064664D50DE00126304601B0E7
:100A4000F0BD1268022903D19201064659D502E091
:100A50009207064655D518680326B0430843186028
:100A6000FFF764FE0746294D404B18680C210140F2
:100A700060688000814205D0FFF758FEC01BA84285
:100A8000F2D93EE0204A10680126304000998842A1
:100A900007D91068B043084310601068304088429E
:100AA0002FD12078400706D507200002196881431E
:100AB000E0680843186019680C220A402C48082A8C
:100AC00009D18A02120F2B4B9C5C284B9A6AC903EE
:100AD00003D42A4808E0044607E00F210A402649CB
:100AE000895CFFF7FDFA214B444318680006000FAC
:100AF0000749085CC4400C48046000263046FFF7F4
:100B000031FE304601B0F0BD0020024088130000E5
:100B1000121F000804480068144909684905490F74
:100B2000024A515CC840704708000020221F00089C
:100B300010B50E490A680C2313400D48082B0AD142
:100B400093021B0F0B4CE45C896AD20304D40B485C
:100B50004443204610BD10BD0F221140064A515C8F
:100B6000FFF7BEFA4443204610BDC04604100240C1
:100B700000127A002A1F00083A1F000800093D00F1
:100B8000F0B587B007460120002F00D1F4E10490B2
:100B90003878C007F94E059757D071680C2001408E
:100BA000042906D07168014008290BD17068C00380
:100BB00008D53068800348D57868002845D1049866
:100BC00007B0F0BD7968002904D001291AD10120AD
:100BD00001041FE00120010432688A43326081046D
:100BE00032688A4332604404FFF7A0FD0546059F42
:100BF0003068204229D0FFF799FD411B032064296A
:100C0000F6D9B9E13068052907D101218A041043DA
:100C1000306009043068084306E001210A0490436B
:100C20003060890430688843306001204404FFF755
:100C30007DFD05463068204207D1FFF777FD401B58
:100C40006428F7D9032007B0F0BD3878800745D570
:100C500070680007800F1DD070680C2101400829C2
:100C600002D17068C00315D5059CE1683068002981
:100C70001DD0012108433060FFF758FD054630685C
:100C8000800724D4FFF752FD401B0228F7D9032028
:100C900007B0F0BD30688007059A03D5D0680128F9
:100CA00000D0C2E03068F8218843116913E00121C7
:100CB00088433060FFF73AFD0546306880070DD560
:100CC000FFF734FD411B03200229F6D954E13068B7
:100CD000F82188432169C90001433160059C2078CF
:100CE000000725D5E169706A002910D00121084369
:100CF0007062FFF71BFD0546706A800718D4FFF786
:100D000015FD401B0228F7D9032007B0F0BD0121D3
:100D100088437062FFF70AFD0546706A800707D5B1
:100D2000FFF704FD401B0228F7D9032007B0F0BDF0
:100D3000207840071CD42078C00600D4BAE0059A79
:100D40005169012951D1706B042101437163706BAA
:100D5000012101437163FFF7E9FC0546706B8007D1
:100D600066D4FFF7E3FC411B03200229F6D903E117
:100D700001221107F069C0000191039206D50020FD
:100D800002907F4F3868C0051ED40BE0F06908431D
:100D9000F061F0690840069006980292784F386832
:100DA000C00511D403980402386820433860FFF767
:100DB000BDFC05463868204206D1FFF7B7FC411B51
:100DC00003206429F6D9D7E0059881686D4F002982
:100DD00016D00129039A05D0306A052949D104218A
:100DE00008433062306A104348E0706B491D2CD1D3
:100DF000042188437063706BF821884391691CE07B
:100E0000306A039988433062306A04218843306233
:100E1000FFF78CFC0546306A80073ED5FFF786FC5D
:100E2000411B0320B942F6D9A6E0049807B0F0BDF3
:100E3000706BF821884305998969C9000143716382
:100E40000598046A002C39D195E0042108437063A9
:100E5000706B012188437063FFF768FC0546706B77
:100E6000800727D5FFF762FC411B03200229F6D932
:100E700082E090433062306A042188433062FFF799
:100E800055FC0546306A800707D4FFF74FFC401B2E
:100E9000B842F7D9032007B0F0BD02980028059C9E
:100EA00000D148E7F06901998843F0612078C006D5
:100EB00000D544E70598046A002C5CD070680C21CA
:100EC0000140082916D1012C049855D001200304B3
:100ED00071680B40F26A059D6C6AA3424CD10F23E6
:100EE0001A40EC6AA24247D19A041140AA6A914280
:100EF00042D140E001200206316804929143316002
:100F00004706FFF713FC0546022C0AD1049C306803
:100F1000384210D0FFF70AFC411B03200229F6D902
:100F20002AE03068384226D0FFF700FC411B03203E
:100F30000229F6D920E0F06A0F218843059AD16A88
:100F40000143F1623D20000471688143906A0843C7
:100F5000516A01437160306820433060FFF7E6FB5F
:100F600004463068384206D1FFF7E0FB011B03203E
:100F70000229F6D900E0002007B0F0BD00100240C1
:100F80000070004088130000401E010E01D00120B7
:100F900070470749074A5060074803680B40032120
:100FA000890759180160002090600721116070477F
:100FB000FFFFFF0010E000E020ED00E0F0B581B0A1
:100FC000002823D004463D20205C25463D350028DE
:100FD00005D13C2000212154204600F04BF802208E
:100FE000287020680668D24FD049CF4A904202D07C
:100FF0001F4A90420DD1411A4A424A41C11B4B42FD
:101000004B4170218E43A768374313E0012001B0A4
:10101000F0BD431A5A425A41C71B7B427B41F64FEF
:10102000B84206D0884204D0F0498842374601D001
:1010300005E03746032109028F4326693E4380219C
:101040008E43A16931430160E168C16261688162D8
:10105000002A04D1E649884201D0002B01D0616901
:101060000163012141612970002001B0F0BDC0463B
:101070000004004081B00068DF49884201D001B01F
:1010800070470120000205490A6802430A600968A6
:1010900001400091009801B07047C0461C1002400A
:1010A00080B586B0002105910491039102910191D0
:1010B0000068D14A904201D006B080BD01204004B2
:1010C0000B4A1368034313601268024000920098B1
:1010D00004200590049103910220029010200190B9
:1010E0000920C00601A9FFF74FFA06B080BDC0462F
:1010F00014100240F0B583B03C23C35C012B02D135
:10110000022003B0F0BD03463C3301241C703D2691
:1011100002258555EA4107463D37032A00D9FDE0FF
:101120000297C0467A44127952009744012A4864D3
:101130000068026AA2430262066AAE434268856999
:101140008F6837437326B5430E682E43BE4DA842C1
:1011500006D0BE4DA84203D0BD4DA84200D0C7E086
:101160000C25AF43CD6801961646042295433D43B6
:101170000322120296434F698A693743019E17433F
:10118000B8E00068026A1025AA430262026A2025BC
:10119000AA43476885698E68360116437322120296
:1011A00095430A6812022A430192A74A904248D006
:1011B000A64A90424CD0A64A904249D051E0220221
:1011C0000068056A95430562026A4668C569732727
:1011D000BD430F682F4301976502AA438D682F0214
:1011E0001743994A90424DD0984A904253D0984A1A
:1011F000904250D058E022030068056A954305628A
:101200006203056A954342680192C2698E6836039B
:101210002E4373252D02AA430D682F0217438A4AD5
:10122000904205D0894A904202D0894A90424CD1DE
:10123000A2030096019E96434A6995013543009E9C
:1012400044E0C0229643CA6812014025AA431643CF
:101250000322920297434A698D6992003A43AF0094
:101260001743024618324760019D85614D688563CA
:101270000662E50286692E438661A5028669AE4351
:10128000866132E00322920297432A4AFF3ACD68F0
:101290002D0215402F430322120396434A698D699C
:1012A000120132432E01164302461C324660019D54
:1012B000C5614D68C5630762C56908262E43C661CE
:1012C000C5690426B543C56123E0019D02461C3271
:1012D0004560C7614D6805640662E502C6692E4334
:1012E000C661A502C669AE43C6610869000211E085
:1012F0003D46174602461832476086614E6846638F
:101300000562856908262E43866185690426B543F2
:1013100085610869029F1168014311603C700020DB
:10132000187003B0F0BDC046002C014000480140D9
:1013300000440140FFFBFFFFF0B581B0002823D03F
:1013400004463D20205C25463D35002805D13C2043
:1013500000212154204600F051F802202870206816
:1013600006683B4F3949384A904202D0214A9042A0
:101370000DD1411A4A424A41C11B4B424B41702197
:101380008E43A768374313E0012001B0F0BD431A34
:101390005A425A41C71B7B427B41174FB84206D085
:1013A000884204D02A498842374601D005E03746B2
:1013B000032109028F4326693E4380218E43A169A0
:1013C00031430160E168C16261688162002A04D131
:1013D0001D49884201D0002B01D0616901630121C0
:1013E00041612970002001B0F0BDC04600440140B9
:1013F000002C014000040040002000407047000025
:101400001F220A4001210B4693400068026A9A435A
:101410000262026A1A4302620B4A904205D00B4AEA
:10142000904202D00A4A904203D1CA03436C13434C
:101430004364826807231340062B02D002680A43E4
:10144000026000207047C046002C01400048014067
:101450000044014070470000F0B581B004460068C8
:10146000C269016886680125EF0200970F373A428A
:1014700062D02E402B021F4620370F40F71965D04F
:10148000D70706D00B40002B03D00562E36F2B4338
:10149000E367930707D5002E05D002230362E36FAD
:1014A00004271F43E767530707D5002E05D0042301
:1014B0000362E36F02271F43E767130708D5202362
:1014C0000B40F31804D008230362E66F1E43E6675F
:1014D000009E324208D0AB060B40002B04D00662BF
:1014E000E36F20261E43E667E36F002B5ED01140BA
:1014F000890605D5216E002902D02046884720683C
:10150000E16F28220A40836840210B409A1835D0A9
:10151000092252010368934303608268AA438260F0
:10152000002222662022A267826852062DD420461D
:10153000FFF790FF01B0F0BD11408A0607D5216E7C
:10154000002933D02046884701B0F0BD11400A067B
:101550000DD449062AD5016840229143016000203C
:10156000606620206067204600F086F81EE0616E0D
:1015700000291BD02046884701B0F0BD2046FFF768
:1015800069FF0020E06701B0F0BD82688A43826095
:10159000E06E00280CD009494163FEF73BFF0028AC
:1015A00004D0E06E416B884701B0F0BD01B0F0BDE2
:1015B0002046FFF74FFF01B0F0BDC0468918000874
:1015C000F0B587B004460027069705970497039760
:1015D000029700682349884201D007B0F0BD012678
:1015E000B00321494A6802434A604A6802400192B6
:1015F000019870040A6802430A6009680140019179
:1016000001980696032005900496122003900C2062
:1016100002900920C00602A9FEF7B6FF134D8020F4
:10162000134982C52F606860AF60EF602F616F6102
:10163000083D2846FEF76AFF002801D0FEF780FD2E
:10164000B0020C490A6802430A60E5666C621B241A
:10165000002120460A46FFF711F92046FFF702F95C
:1016600007B0F0BD003801401410024050000020C7
:1016700058000240000001407047FEE77047704785
:10168000704780B5FFF756F880BD7047B0B5416A26
:10169000CA070CD18A0714D44A071CD40A0724D4D9
:1016A000CA062CD48A0634D44A063CD44CE0012223
:1016B000520403685C689443826A22435A608A0732
:1016C000EAD50122120403685C689443C26A22438B
:1016D0005A604A07E2D50122920403685C68944389
:1016E000026B22435A600A07DAD50122D20303684B
:1016F0005C689443426B22435A60CA06D2D50122E9
:10170000120303689C689443826B22439A608A06A2
:10171000CAD50122520303689C689443C26B2243DA
:101720009A604A0610D501221305026854689C434A
:10173000056C2C4354609D4206D103235B0554681D
:101740009C43436C23435360090607D50121C90418
:10175000026853688B43806C18435060B0BD000032
:10176000F0B583B0044600200290E06727467C373E
:10177000FEF7DCFF054620680168090702D5C1694C
:10178000890211D50168490702D5C069400222D5F6
:101790002020606727467837029A1046202139605A
:1017A0007021625403B0F0BD012046050090C002D4
:1017B0000190FEF7BBFF421B20680168314B9A4243
:1017C00020D8490703D5C169019A114238D1C169AE
:1017D0003142EED0D6E7012086050090C00201908C
:1017E000FEF7A4FF421B20680168264B9A4218D8D6
:1017F000490703D5C169019A114232D1C06930420B
:10180000EED0C5E70D225201914301608168009A34
:101810009143816020206067274678370320029A31
:10182000BCE70D225201914301608168009A914307
:10183000816020206067274678370320029AADE751
:10184000019901620D21490102688A4302608168A1
:10185000009A9143816020206067A0670320029A6C
:101860009CE7019901620D21490102688A430260E7
:101870008168009A9143816020206067A0670320FF
:10188000029A8BE7FFFFFF0180B5406A5A210022D0
:10189000425252214252FFF7DDFD80BDF0B581B0CA
:1018A0000446C06962692369A56821680E68364FDD
:1018B00037401D43154305433D430D60032212038A
:1018C0004B689343E2681A434A60A269236A134350
:1018D0000B2212028D6895431D438D602B490968C8
:1018E0008907090F2AA251580125EA03904210D115
:1018F000082943D82C482B4E7944097949008F4454
:10190000043D1D3D173D3D3D1B00FFF703F9400021
:1019100014E0082932D822487944097949008F44D3
:10192000042D202D1C2D2D2D1F00FFF7F3F818E09E
:10193000FFF7FEF8400001E03046103061684A08C9
:101940001018FEF7CDFB0640002E17D00007400F01
:1019500030432168C860002510E0FFF7E9F800E097
:10196000104661684A081018FEF7BAFB0D490F319E
:101970000140102902D32068C160002500202066A4
:101980006066284601B0F0BDF369FFFF30100240E9
:101990000000000004000000080000000200000039
:1019A00000127A00F0FF00000024F40080B5E24845
:1019B000FFF752FD80BDC04670B503044D1E7C4A42
:1019C0000E2D00D975E015246405C0467D442D799F
:1019D0006D00AF44070D141B222930373E454B5292
:1019E00059606700DD0FED01254315602025156066
:1019F000050A80262E402643166020251560C5095D
:101A000080262E40264316602025156085098026F5
:101A10002E402643166020251560450980262E405D
:101A20002643166020251560050980262E40264392
:101A3000166020251560C50880262E4026431660B6
:101A400020251560850880262E4026431660202517
:101A50001560450880262E40264316602025156017
:101A6000802505402543156020251560450080260A
:101A70002E402643166020251560850080262E40C6
:101A80002643166020251560C50080262E4026437B
:101A9000166020251560050180262E40264316601D
:101AA0002025156040018025054025431560202034
:101AB00010600F20441A0E2C00D978E05B120B4105
:101AC0003C48C0467C4424796400A744070E151C9A
:101AD000232A31383F464D545B626900190C80243B
:101AE0000C400443146020211160D90B80240C4069
:101AF0000443146020211160990B80240C4004439E
:101B0000146020211160590B80240C4004431460A0
:101B100020211160190B80240C4004431460202103
:101B20001160D90A80240C40044314602021116004
:101B3000990A80240C400443146020211160590A42
:101B400080240C400443146020211160190A802471
:101B50000C400443146020211160D90980240C40FA
:101B60000443146020211160990980240C4004432F
:101B7000146020211160590980240C400443146032
:101B800020211160190980240C4004431460202195
:101B90001160D90880240C40044314602021116096
:101BA000990880230B40034313602020106070BD10
:101BB000180000480002A00296B0FEF7C5FD002400
:101BC000119410940F940E940D940C940B9405940E
:101BD0000494039401250F950D9512200A901594F5
:101BE0000520C00414901394022012900646019020
:101BF000102010900E900AA8FEF7C2FF09940894D6
:101C000007960720069006A82946FEF7DFFE0494F3
:101C1000029502A8FEF752FE0E946804424F3968FE
:101C2000014339603968014006910698A804396873
:101C300001433960396801400691069809200090F7
:101C4000C6063A4930462246FEF768FD0D940C94CC
:101C50000B9536480A900AA93046FEF795FC38687D
:101C600028433860386828400A900A980B26304686
:101C700021462246FEF702FE3046FEF7F3FD242001
:101C80002B4E3454B5623462FF20C23004272949F8
:101C900012C63460083E31460C31B0C1B461F06107
:101CA0003046FEF7D9FA28070C9028030B900098CD
:101CB0000A900AA93046FEF745FA1F48E121490279
:101CC0001E4A04624462026041608460C460046130
:101CD00047618461C46121462246FEF779FD804E4A
:101CE0008020B061164811C634607560B4601094ED
:101CF0000F940E940D94083E3046FFF75FF930467E
:101D0000FFF71AFB0E9701980C900B9560200A9034
:101D10000AA930462246FFF7EDF93046FFF7C0F931
:101D200000F010F8FEE7C04614100240E306000081
:101D30001000002000240140D400002000380140A1
:101D40000020004086B00125E843644908606448EB
:101D500000263146FFF754FB62480246803A624C47
:101D600022602021216022602160226021602260A7
:101D7000216022602160206021602060216020605D
:101D8000216020602160594B1A4680322260216018
:101D90002360216023602160236021602360216033
:101DA0002360216023602160206021602060216029
:101DB000206021602060216020602160206021601F
:101DC000206021602060216020602160206021600F
:101DD00020602160206021602060216020602160FF
:101DE00022602160226021607D20C400029501965E
:101DF00004960395204618303B490860049F3846F6
:101E00007843000B7843049705130426284631468F
:101E1000FFF7D2FD3648C01B01464143090B414341
:101E20000F1338463146FFF7C7FD28463146FFF706
:101E3000C3FD38463146FFF7BFFD28463146FFF760
:101E4000BBFD38463146FFF7B7FD28463146FFF760
:101E5000B3FD38463146FFF7AFFD28463146FFF760
:101E6000ABFD38463146FFF7A7FD28463146FFF760
:101E7000A3FD38463146FFF79FFD28463146FFF760
:101E80009BFD38463146FFF797FD28463146FFF760
:101E900093FD4020144D286006213846144FFFF76B
:101EA0008BFD0299880628602A468805039D1060EC
:101EB0000198059004984019B84200D96D420C4928
:101EC000884206D804900598A04292DA0598401CF2
:101ED00005900598A042F9DB8BE7C04610E000E0D2
:101EE000940000208000A002180000480002A00218
:101EF000FF0F000002E008C8121F08C1002AFAD133
:101F000070477047002001E001C1121F002AFBD179
:101F100070470000000000000000010203040607F3
:101F2000080900000000010203040203040506077B
:101F300008090A0B0C0D0E0F101001020304050610
:101F40000708090A0B0C0D0E0F100000701F000887
:101F50000000002010000000F41E0008801F000890
:101F60001000002048050000041F000800000000C9
:101F7000010000000400000000127A0000000000D0
:04000005080000B13E
:00000001FF
